S00E00004241524B5F76322E733337BF
S21400000000000120E96C0000E56C0000E56C0000D3
S214000010E56C0000E56C0000E56C0000E56C000097
S214000020E56C0000E56C0000E56C0000E56C000087
S214000030E56C0000E56C0000E56C0000E56C000077
S214000040E56C000025670000E56C0000E56C00002C
S21400005085220000296700002D670000356A000031
S21400006035670000E56C0000E56C0000E56C0000FC
S214000070E56C0000E56C0000E56C0000E56C000037
S214000080E56C0000E56C0000E56C0000E56C000027
S214000090E56C0000E56C0000E56C0000E56C000017
S2140000A0E56C0000E56C0000E56C0000E56C000007
S2140000B0B967000031670000F9300000E56C000009
S2140000C015670000E56C000009310000E56C0000D3
S2140000D0E56C0000E56C0000E56C0000E56C0000D7
S2140000E0E56C0000E56C0000E56C0000E56C0000C7
S2140000F0E56C0000E56C0000E56C000010B5054CF2
S214000100237833B9044B13B10448AFF300800123BE
S214000110237010BDA800002000000000C09700005B
S2140001200C4B43B10C480D4910B5AFF300800C489A
S214000130036823B910BD0A48036833B97047094BF2
S214000140002BF7D0BDE810401847064B002BF5D023
S214000150184700BF00000000C0970000AC00002059
S214000160A400002000000000154B002B08BF134B16
S2140001709D46A3F5803A00218B460F461348144A45
S214000180121A06F013FE0F4B002B00D098470E4BAA
S214000190002B00D098470020002104000D000D48D9
S2140001A0002802D00C48AFF3008006F0DBFD2000EC
S2140001B0290000F015F806F0C1FD00BF0000080099
S2140001C0000001200000000000000000A800002041
S2140001D0201B0020000000000000000000000000BF
S2140001E02DE98048294A536813F48063A7B008D0E5
S2140001F04FF000531B68A3F1020EDEF1000343EB41
S2140002000E03012191604FF0005200211160002B77
S21400021045D11EA805F0F0FF05F046FF054600286C
S2140002203DD09DF87830012B34D1446B05F0D4FFD7
S214000230209B5F0713D505F037FF05F0ADFF04469A
S21400024005F0BAFF5CB305F02FFF044605F02CFF5F
S2140002500F4B986023689D46636898471FE084B1FB
S21400026005F070FE84420CD205F06CFE04F13803F3
S214000270834206D8636923B1204605F0F5FE0028C0
S214000280D9D105F1FC0005F0EFFED8E700500E408E
S21400029000ED00E0FC3005F0E7FE0028D3D1B44ABC
S2140002A0136843F480731360B24B4FF416721A60EF
S2140002B0B14A5A60B14A1A674FF4F0729A60B04B6E
S2140002C002229A639A6B02F00F02022A40F0B7806D
S2140002D0DA6C22F0405222F0010242F00102DA64A7
S2140002E0D3F8E02042F44072C3F8E020DA6E42F021
S2140002F08072DA66A34B186800B1042005F0ACFBE8
S214000300A14B9F4CC8221A80A04BA0221A80A04B5B
S2140003100F20188005F038FB9E4BA36500269E4BE9
S21400032018962096169617961E961F96D3F868313E
S214000330C3F30722DBB220921893E36CC3F3017871
S214000340434632461EA916A805F098FBD4F8E0707E
S214000350C7F301273B4632461FA917A805F08EFBB8
S214000360DDF880B0DDF860E0179BDDF878C0DDF8DA
S2140003707CA04FF41670ABEB0E024243B2FBF0F2D9
S21400038002EB0E01169AAAEB0309ACEB02058B45AD
S21400039000FB05F500FB09F9B5FBF0F5B9FBF0F934
S2140003A0154499444BD38E4549D8CA4547D34B4547
S2140003B045D8AC4543D3AA4241D8E26D22F4FE426A
S2140003C022F0020242EA0122E2653146404605F08A
S2140003D0A7FA002833D00121384605F0A1FA0028F4
S2140003E02DD0636E4D4538BF4D46E72D23F4FF7381
S2140003F028BFE72523F0010343EA45036366E36B62
S21400040043F48063E363214623469A6FD607FCD401
S2140004101B6C624A13F003030DD0012313608B6F2D
S214000420DD07FCD40B6C23F003030B6454498B6F7D
S21400043013F00103FBD11360594B01221A60594C8B
S214000440112005F09DFB0021022005F04DF9636A9E
S214000450554823F001036362544B00251D60A36AD0
S21400046023F0070343F00603A362514BE362226BBB
S214000470504B02F07F62134323634F4B636329465E
S21400048005F056FB4D4806F09BFA0121022005F0C8
S2140004902BF92946444806F069FA494B1D68002D99
S2140004A0FCD102236367474806F0AAF906F088FAEB
S2140004B006F036FC064605F02DFB0146304606F0F3
S2140004C055FA666A05F026FB0146374806F04EFAEE
S2140004D046F04056344806F073FA6662D4F8C830E0
S2140004E02D4E43F00103C4F8C830374BB26A9A6504
S2140004F00AA908AA352005F02DFD30B19DF8203058
S214000500042B06BF0A9B18682846C40315D52E4838
S21400051000230CAA816D99540133062BFAD19DF85D
S214000520353043F060038DF835309DF8363043F0B3
S21400053001038DF83630254B5A60254B254A1A6044
S2140005405A609A604FF48070002298829A751A82D8
S214000550DA75214B214919605960996098829A751D
S2140005601A82DA751E4B1F48082119703CE000BF3E
S21400057000000E408C420E404A5D050028E2160040
S21400058000300E408009C643C6180020C818002058
S214000590C4180020372110B7B081E00FB40AC64354
S2140005A09407C64300400E4000F04902A004C8432A
S2140005B02000050007450BD047A002000148E801CF
S2140005C0C800C6430025080000500840C8000020A8
S2140005D05C0A00206C060020440A00206C050020FF
S2140005E0DC0800206C0700201E4B1F4919601F4BBB
S2140005F01F4919601F4B20491960204B204958603D
S2140006002048196003602048C3F88C200160996A6E
S2140006101E485A65914208BF01461D489A65A3F8D0
S2140006204020A3F8422064220160A3F84420A3F8E7
S2140006304620A3F84820A3F84A20A3F84C20A3F8A5
S2140006404E204FF6FF729A82112005F099FA042880
S21400065005D1104B5B6813F4403F00F08D860023F5
S214000660BAE200BFE80800208C7A0000F0080020FC
S214000670A47A0000EC080020947A00007807002096
S2140006802D2E0000501800201400002049180000ED
S2140006902C00002000300E4002EA0407874203F1D7
S2140006A0080308BF15608B4203D013E92400002A14
S2140006B0F2D1C14BC14C5A691A691A699A69DB6949
S2140006C0BF4BC4F8443148F2E673C4F838314FF4EF
S2140006D00863C4F83431BB4BC4F8A030BA4BBB4DEA
S2140006E0BB4F4AF63F429A6003F580434FF0C07214
S2140006F09A620023C4F8FC30B64BC4F89C30B64B64
S2140007007F221A6003F1007323221A6003F5425316
S214000710343303221A604FF40023C4F894304FF0A9
S21400072001084023C5F80080AC4A2B604FF4607384
S2140007303B604FF040731360936101F07DFDC7F896
S2140007400080039502F082FD05460028FAD10123B9
S2140007504FF00450E0674FF48D52C4F88030A04943
S214000760A04F07F0ACF8A04B2366AC2229469F4862
S214000770D7F8008006F01AFB9D4B9E4A5A60294621
S2140007806822C7F800809C4806F010FBC4F8885022
S214000790C4F88C50C4F89050726D3368D2B2FF2AF9
S2140007A043F3074301D0581C01D1902219238F49E7
S2140007B0DFF8A4A2DFF8C082022093FBF0F342FA2F
S2140007C083F3CB7323234B738C4B88734FF60372E0
S2140007D01A6003F10073039A894900251D604FF0E3
S2140007E080431360874B884A1A60884A0323136045
S2140007F0516040F6FF715162854915635163536538
S214000800844A85491380854B854A1D80854B1D602B
S2140008105A604FF400525A62834A4FF44073136092
S21400082002F100720127156002F17E420432136065
S21400083002F100724FF47A74156002F17E420432BF
S21400084013604FF480720A6001F17E4104310B6040
S214000850764B1A6003F17E436C3BF0221A6003F17C
S2140008600073A0221A60724BC3F8B87004F0DAFD69
S214000870704B71481F6029464C2206F097FA6F4B62
S2140008806F481F606F4BCAF8003002F02BFE4FF423
S214000890FA72B0FBF4F4A4FB02231902100210EB68
S2140008A0080041EA12614FF0000941EB0901664A6F
S2140008B0002306F06DFEA0F58073804615F5FA70ED
S2140008C0CAF828304FF47A724FF0000344F1000162
S2140008D006F05EFE05468946B8F1000F03D12B20D0
S2140008E004F056FAB8464FEA092141EA1561280293
S2140008F04FEA5805401942464FF0000341F1000107
S21400090006F046FE514B1960514B4FEA0869824685
S2140009108B4618604FEA18281CB92B2004F038FACA
S21400092001244FF47A774FEA540EA9FB070110EB27
S2140009300E004FF0000507FB081122462B4641F13A
S214000940000106F025FE434B434C1960434B1AF159
S214000950020A18604BF1000B4FEA9A0343EA8B73C6
S214000960013B23633E4BDFF854A03E484FF0005255
S214000970C3F880211A60012363600723CAF8843015
S21400098002F0B0FDB0FBF7F93748384A384F401947
S2140009904FF0000141EB0901002306F0F9FD354B4D
S2140009A018604EF6602002F0CDFC40427863264880
S2140009B004F060F8804661E0D0FF0FE00040084099
S2140009C0C0E653517A27000F00300840944008468E
S2140009D00C400846806D630324300844F8400846FF
S2140009E0007B0000E81F0021C01F0021541F0021CB
S2140009F0EC1F00213F003700EC1E00217C0008445D
S214000A00441600204C0900209521000030100840B4
S214000A10F80800203A090020A800084638090020F7
S214000A205808002090100840A0000844AC00084673
S214000A30001008400C400844001F0021C8400E4625
S214000A40000406000011010040420F006418002058
S214000A5060180020B809002000500840B4090020A3
S214000A6000E100E06051070000093D0000127A0036
S214000A70841F0021DC09002020A10700B04802F0F6
S214000A8031FD4FEAC8024FEA90494FEA80385008D5
S214000A9018EB000B49F1000C2B466146584606F051
S214000AA077FDF860A748A84F02F0EAFCA74BC4F809
S214000AB00031A74A0399A3F52003C4F810314FF478
S214000AC0002315700B60A34BD3F8C81041F06C00E0
S214000AD08142154640F0F480DAF80C20D10700F188
S214000AE0EF80D3F81031C3F30823002B40F0E880E2
S214000AF0EFF3108072B6984BD3F818E0A3F5C04316
S214000B004FF06052D3F884103A60944A4FF0006475
S214000B1014602422C3F88420914A042414604FF4FD
S214000B2080429A664FF480525A621A6E5204FCD57E
S214000B301A68D405F9D54FF480429A66DFF874C275
S214000B40D3F888401E944FF00408CCF80080C3F811
S214000B5084108149C1F818E09A6605F00DF8A4B231
S214000B604FF605034FF60402944208BF1C467D4B21
S214000B709C6501232B707C4B7C4C186802F00EFDA4
S214000B807B4A7C4960230620536408600021C2F833
S214000B908410794A4FF0805111604FF400123A6089
S214000BA04FF060523A60754A40F6FF7151625165E7
S214000BB002F1C062A2F6BC721360714B40221A604A
S214000BC0D4F88C0004F022FD04234FF0805219461E
S214000BD0104605F007FC234655A1D1E90001694FF0
S214000BE0DFF8D4813B60C3E9150103F10C044FF034
S214000BF0FF3151A3D3E900236FF0010005F0F2FBAB
S214000C00204601F01BF8022004F000FD386864233B
S214000C109422A0F84430A0F84A304FF000099623FA
S214000C20A0F84C20A0F84830A0F84090A0F84290D9
S214000C30343002F025FC3C685349012504F10C00D1
S214000C4000F004FE04F1340084F8385002F0C4FBCF
S214000C504E4B4FF4F0621A6003F100734FF40072CB
S214000C601A6003F5804350334FF000621A60237B0E
S214000C70474A2B43237313683C6823F00F0343F063
S214000C8003031360494604F10C0000F07FFF02F0F6
S214000C90F9FDC8F800902F4B706AD3F88831C0432E
S214000CA0284003F4800318433E4604F13404394FC9
S214000CB000F0928303233B70374BFF221A70B5E394
S214000CC0142004F065F854E7012B3449344D354CB4
S214000CD011D1D8F80020024042F003020723C8F8DA
S214000CE000200B6006232B602F4B23602F4B4FF406
S214000CF040421A6092E3D8F80030034043F0804345
S214000D0043F00403C8F8003007230B6005232B606C
S214000D10C02323608122264BEBE7FF2193E3206864
S214000D20B060A288A379BB71BA809CE3AFF3008061
S214000D30081B880200000000081B88120400000040
S214000D4060510700AC070020186008440300C0008C
S214000D50CC09002000400E4000600840186008469D
S214000D600040084600500840180000207807002081
S214000D7000000840700008449440084400100840F2
S214000D8088400844980A00207493000044000844F1
S214000D90541F0021D40900201C0000200C410844E8
S214000DA00C41084608410844C1004000044108447C
S214000DB00841084600400844E81F0021C94B09992D
S214000DC018681B791E9089F8043049B39DF81F20D7
S214000DD01B2A28BF1B22531D8DF81E300DF17D00E7
S214000DE0531C8DF87B3006F06AFD16A800F0EEFF67
S214000DF0BD4A9DF81E30128829F8032026A99A1CA1
S214000E0051FA82F2002102F8201C1698BDF85C10F8
S214000E1042F81F0C093322F81B1C8DF81E306BE3BA
S214000E200E238DF81E300A238DF87B30AF4B1A68E0
S214000E30CDF87D205A681B7ACDF881208DF8853054
S214000E40D3E7AB4B1A889B788DF85A300323ADF85E
S214000E5058208DF81D3063E30921A44894E33B79BC
S214000E60A44AA5494FF4804005F058FE3B794FF060
S214000E70000A08F1FF32082BA4F802A092B200F094
S214000E8094812DD8042B9D4D59D0062B00F09080D0
S214000E90022B2CD1022A40F05E82B6F80530984A22
S214000EA098494FF4804005F039FEB6F80580964A1A
S214000EB09449B8F5007F28BF4FF4007843464FF4B6
S214000EC0804005F02BFE00220323114602202B70E3
S214000ED0A5F8018005F0B8F9A4F8008000F0A1BCE0
S214000EE0102B00F0C88105D80A2B00F0BE804FF00A
S214000EF0060992E1122B00F02981522BF7D1A8F1B6
S214000F0003081FFA88F5B6F80530804A00954FF4B6
S214000F1080407F4905F002FEB6F8050003F0CAFCE3
S214000F20002800F07E84037B5B0740F17A842A4623
S214000F307849B6F8050005F0C4F900F072BC042A3A
S214000F4040F00982B7F80720B7F8053072490092DA
S214000F504FF48040714A05F0E1FDB7F805901FFA9E
S214000F6089F31846049303F0A5FCC846049B10B901
S214000F70A4F802904BE090F80890D0F804B0684AC5
S214000F800093B9F1020F0CBF4FF0010A4FF0020AAE
S214000F90534664494FF4804005F0C0FD05232B708E
S214000FA085F801A0A5F802804A465946032095E038
S214000FB0A8F107081FFA88F8B7F80530CDF80480BE
S214000FC0B7F8072000925849584ADFF87CB14FF42A
S214000FD0804005F0A3FD4FF00203B7F80500B7F810
S214000FE007108DF84C300BF10203CDF80480009307
S214000FF0CDF848B012AB0CCB03F084FC4FF6FF796B
S2140010004845804606D17B68C3F30F2363804FF0C4
S2140010100A0902E14FF002038DF83C30CDF804A037
S214001020CDF800A0CDF838B001300EAB0CCB494659
S21400103080B203F067FC484582461CBF00F1FF3AC9
S2140010401FFA8AFA4346CDF800A0394A39494FF4C8
S214001050804005F063FD07232B70A5F80180A5F8F6
S21400106003A000221146042038E0022A40F07381D3
S2140010704FF48040B6F805302F4A304905F04EFD53
S214001080B6F8050003F016FC30B94FF00109736896
S214001090C3F30F236380BCE0037B990740F1C5834D
S2140010A0238826AA013B22F86C3D12A9B6F8050053
S2140010B005F0E2F881460028E9D1BDF82C50204A18
S2140010C02049DDF848802B464FF4804005F026FD89
S2140010D00A4B0B221A7041462A46484605F0B4F8D9
S2140010E09FE300BFA08C0000B08C0000A68C000020
S2140010F0B38C00000A7A0000378D0000FD1800202F
S214001100817900004D8E000034790000D879000007
S214001110CB8D0000D7000020598E0000257A0000F5
S2140011204B7900004A8D00006E8D0000387A000072
S21400113066790000978D0000A0790000778E000089
S21400114090790000BC8D0000D9000020A8F10308AB
S2140011501FFA88F5B7F805308B4A00954FF48040A3
S2140011608A4905F0DBFCB7F8050003F0A3FB00286E
S21400117000F05E83037B1A0740F161832A468449A8
S214001180B6F8050005F09DF88146002840F0528329
S214001190804A81494FF4804005F0C0FC7F4B132203
S2140011A01A7049464A46484698E7A8F105081FFAC5
S2140011B088F8B8F1020F02D0B8F1100F2DD1B6F8AA
S2140011C00720B6F80530764900924FF48040754AFD
S2140011D005F0A4FC744B12938DF84C800023B6F8EF
S2140011E00710B6F805000193009312AB0CCB03F082
S2140011F089FB4FF6FF739842054623D0238826AA1C
S214001200043B22F8763D0BA905F036F88146D8B1A6
S2140012106580B9F1000F00F0048396F804806588B5
S214001220624A634943468DE820024FF4804005F049
S21400123075FC5A4B01221A7083F801805D8083F892
S21400124004900EE77368DFE6BDF82280594A4F49DE
S214001250CDF800802B464FF48040DDF82C9005F04A
S2140012605DFC4E4B09221A7008F102025A705D802E
S214001270424649469AE6A8F105081FFA88F8B8F1EA
S214001280020F02D0B8F1100FC7D1B6F80720B6F893
S2140012900530434900924FF48040474ADFF808B1D2
S2140012A05FFA88F54FF0000905F038FCB6F805003F
S2140012B0B6F80710CDF848B08DF84C50CDF804902D
S2140012C0CDF8009012AB0CCB03F01CFB4FF6FF7A68
S2140012D050458046B6D08DF84450CDF80490CDF8F1
S2140012E00090CDF840B008F1010010AB0CCB514691
S2140012F080B203F007FB238826AA5045A3F1060315
S214001300054622F8763D18BF00F1FF350BA940468A
S21400131018BFADB204F0B0FF814610B1A4F8028049
S21400132077E7BDF82290254A2549DDF82CA04346EC
S2140013304FF480408DE8200205F0F0FB174B112299
S2140013401A7009F104025A70A3F802809D804A467A
S21400135051460520C2E64FF004095EE71022002140
S21400136012A805F023FD174B129312A90223484634
S214001370139304F0BFFD54E202F084FA124C134BB0
S21400138013481449FFF791B9CF790000CB8D0000C0
S214001390D7000020A8790000E98D0000FD18002085
S2140013A0598E0000FC790000D90000202379000047
S2140013B0198E0000B9790000127A0000E179000069
S2140013C0EF8D0000100000200000FFFF0880E00FF7
S2140013D000000840B881E00FC14B1A689B88BB80AC
S2140013E03A6003F017FC21460A2003F08BFB3B789B
S2140013F0BC48022B7FF468ACD8F80010BA4B01400A
S2140014004FF4EE4241F08041C8F800101A6003F134
S21400141000734FF48A421A6043F8045C002003F01D
S214001420F9FBB24B03221A6003F03AFBB04C30686B
S214001430B4F9002047F6FF718A423FF46EAC0021F3
S21400144000F058FC01463068AA4F0C3000F09EFBB6
S2140014506468002C7FF463AC384600F0B7FCB37BBE
S21400146064F30003B373A44BA44DDFF82C83A44CA1
S214001470202283F80123002183F80423284683F8DA
S214001480062383F8072383F8052383F8082383F8C5
S2140014901D23602205F08AFC9A489B4B4FF49072FD
S2140014A085E80900B2822523984A6B7201231370DF
S2140014B02B720023C8F800300DF11F021B2309A968
S2140014C03620238004F046FD0DF11E020AA93920BD
S2140014D004F040FD0DF17809CDF80C8000283FF4AB
S2140014E06DAC9DF81E200A99202A28BF2022484667
S2140014F08DF81E2006F0E3F90DF11D020AA93A2028
S21400150004F028FD00283FF49CAC9DF81D200A99A5
S214001510202A28BF202216A88DF81D2006F0CFF915
S214001520DFF878827A4800234FF0020AC8F80030C5
S214001530C8F80430774B036080F804A003F0CAFFB5
S2140015407548764B036080F804A01023037203F0FE
S21400155097FF7348734B0360734B80F804A0C36017
S21400156080F808A0A0F810A08DE80804534690E87C
S2140015700600143004F012FF0998CDF810800028F9
S2140015803FF46AAC9DF81F1003F0B4FF6748684B41
S21400159003604FF0100880F8048003F09BFF654856
S2140015A0654A664B03604FF6FE7A0823C26080F8F1
S2140015B00480A0F810A00372059303F061FF604852
S2140015C0604A02600C2202725F4AC26080F80480A1
S2140015D0A0F810A003F054FF5C485D4A059B02602B
S2140015E04FF0020B5B4A80F80480C260038280F8EA
S2140015F008B003F045FF5848584B0360584BC3608B
S21400160080F804800123038280F808B003F038FFD6
S2140016105448554B0360554BC36080F80480A0F8CF
S21400162010A080F808B003F02BFF5148514B036020
S214001630514BC36080F80480A0F810A080F808B072
S21400164003F01EFF4D4B049A1A604FF6FF729A8005
S2140016509DF81E20202A05D8931DAB73494648489E
S21400166006F02DF99DF81D20202A06D8931D85F832
S214001670363016A9434806F022F901F043FA2B7BD0
S214001680B27B43F001032B736B7B02F0010203F085
S214001690F00362F386136B73AB7B0BB90623AB7355
S2140016A0394BB98838689980186095F83530042128
S2140016B061F3030362F3861385F8353095F8363008
S2140016C013B9062385F83630304B3868BA88186068
S2140016D09A802F4F01F05EFA3E462E4A60E000BF29
S2140016E00C8F0000E8FFFFBF24410844584108441F
S2140016F0C8000020A00A002000E100E054090020F5
S214001700C4000020D6BE898E55555500740A0020A8
S2140017109C080020B78C0000E0030020BA8C000074
S21400172040050020BD8C000020790000BC08002089
S214001730C08C000038040020C5450000D18C000095
S21400174090040020E28C0000E542000030030020F8
S214001750F38C00004B7A0000E8040020048D0000A3
S2140017608A8E000088030020158D0000C542000008
S214001770D8020020268D000085420000F80B0020CD
S2140017806909002091090020630900208B090020C8
S214001790D0000020400A0020D402002004190020B7
S2140017A01378002BFCD0EFF3108572B600231A4690
S2140017B00DF12101234805F069FA284604F0DCF90A
S2140017C09DF8213013B1039A00231360039B1A6817
S2140017D0EFF3108872B6C2F501739BB23A440DF16E
S2140017E02101184805F052FA0546404604F0C4F9AF
S2140017F0039B18682844032818607FF66EAFB7F876
S214001800008008F104039842FFF467AF09D8B7F8E0
S2140018100290B9F1040F3FF422ABB9F1060F3FF482
S2140018209DAD039A0023136057E74FF002092EE49C
S2140018304FF001097368C3F30F236380EDE44FF0A4
S2140018400309F7E7440A002070477047F8B50646D4
S2140018500D4611B91F2003F09BFA00233562736210
S21400186015B91F2003F094FAE86800214FF6FF72BE
S2140018701827CBB2834206D314462146304603F0DF
S214001880B9FA2046F8BDAC6807FB0343DC899442EE
S21400189002D2002CF1D022460131EAE72DE9F74FBB
S2140018A0A44DDFF8CCA2EB680193A34BD3F8A0803D
S2140018B0D3F8A470044600F128064FF0010919B1C8
S2140018C00A68501C40F09C8003F0EAF89B4B9C4A48
S2140018D09B691278C3F382139A4204D0994B31461F
S2140018E0186803F00FF9984801F0FCFD4FEAD0099C
S2140018F001F02AFF914B9549D3F8303113F4004F8D
S2140019004FEAC91307D003F5744291482432B2FB5C
S214001910F0F290484A6003EB5003B3FBF0F0864BBE
S21400192088605A68D20200F1AC808B4ADFF808E281
S2140019301268D3F8A830DEF8A800C2F3810213F4C8
S214001940806302F10102C0B218BFD300FF2805D0A1
S214001950DEF8AC00400501D503EBC203774AD2F8A7
S2140019603021120448BF03330B61734BED68D3F884
S214001970A010D3F8A42088450AD078480378C1F38D
S214001980802E6EF30003C1F3C02161F341030370A0
S21400199097420AD071490B78C2F3802060F3820325
S2140019A0C2F3C02262F3C3030B7023894FF6FF72A3
S2140019B0934207D06A4A07211160002B63D1694B16
S2140019C005221A60019BAB4200F0A9806649674F6A
S2140019D025B12B6813B1AB68002B5DD1EFF31080F7
S2140019E072B60B6823F007030B6004F0C5F80023FB
S2140019F03B607B60002D7ED12B4619461A4683E05D
S214001A00C2F3036EC2F307405AF82EE093B20128E1
S214001A1043EA0E0311D9820001EB020E08465B1A58
S214001A2003EB000C50F804BFCCF800B08645F7D1A5
S214001A30043201EB020B594641E7120F01F1080B85
S214001A404868072AF7D8DFE802F0070409110C0FE8
S214001A501417C04303F180631860ECE71A6850401F
S214001A60FAE701F033FFE6E709FA00F003F1C06396
S214001A70F2E709FA00F0EDE71A6830EA0202FBD155
S214001A80D9E700236AE7B3F5805F28BF4FF4805399
S214001A90294A013B936195E7314A0720106093F885
S214001AA004E087F800E0587990FAA0F2B2FA82F2E1
S214001AB0202A08BF4FF0FF325FFA82FC20FA0CF0B3
S214001AC002F00F0242EA00127A709A79BA70DA7956
S214001AD0FA701B68184A7B600EF101039361EFF3FE
S214001AE0108072B60A6882F0070303F007035340BB
S214001AF00B6004F041F82B68002B3FF47EAF2A6998
S214001B00AAB191681368D289A36243F2C8239A42A5
S214001B1028BF1A462163E286304601F0B1FC2378DE
S214001B20002043F00203237003B0BDE8F08F134695
S214001B3063E700BFEC1F002100000840006008407B
S214001B40280000205C18002060510700841F002138
S214001B5048E8010020A107000020084018190020CE
S214001B600400084404000846EC1E00214C1F002117
S214001B70148F000008B590F86030032B04D0084698
S214001B8003F048F8002008BD022008BD70B590F8A4
S214001B906030032B05460E4611D02971416A39B1D3
S214001BA003F00EF930B968626988284603F022F916
S214001BB0002070BD31462846FFF7DCFFF8E702201C
S214001BC070BD00001B4BDB6813F0060F2BD11A4BC1
S214001BD05B6803F07063B3F1E06F0AD011D8B3F11D
S214001BE0407F22D007D8B3F1807F02D0B3F1007FC8
S214001BF011D102207047B3F1806FFAD0B3F1A06F15
S214001C00F6E7B3F1206F0ED007D8B3F1006F0AD015
S214001C10B3F1106F0BD001207047B3F1306F02D0D4
S214001C20B3F1406FF7D104207047032070470520BA
S214001C30704700BF005008400040084003789A07ED
S214001C4070B504464ED5426A002A4BD06FF3410366
S214001C500370254BDB686BB1196859B1DB6813B1AB
S214001C601B78112B06D82149D1F83C311B0C1B04DC
S214001C70C1F83C3153691A68531C09D01B49D1F886
S214001C803C311B0C1B0492B21343C1F83C3170BDAF
S214001C90D4E91223002203F00403134304D123786B
S214001CA043F00203237070BDEFF3108072B625690F
S214001CB0E36805F480352B43E36003F05DFF002204
S214001CC075B90023D4E9120102400B4052EA030121
S214001CD008D00749A4F10C000968BDE87040084721
S214001CE00423EFE770BD00BFEC1F00210040084052
S214001CF0140000202D4B1B6870B52BB12C4C2468AB
S214001D0014B12C4D2D682DB92B4B2A221A602B4B63
S214001D101860FEE7002942D0012934D0B4F900103B
S214001D208A4203DC26499142B8BF11462822A1F117
S214001D30C80393FBF2F3234A646815785B421BB230
S214001D409D42DCBF05F1FF331BB24FF47A7604EBFD
S214001D50C3020133508852681BB211FB002020EAF0
S214001D60E0709D4200F5FA70B0FBF6F219DC03F164
S214001D700053013B34F83300904228BF1046002839
S214001D8008BF012009E0062335F91310914218B266
S214001D9002DD013BF8D118460130C0B270BD1C46CA
S214001DA0BCE734F833008242D1D9E0E7E8080020E7
S214001DB0F0080020EC08002020000020240000206E
S214001DC0C880FFFFDC080020FEE70000084B196C07
S214001DD010B500225C6C0A43110A0270120C827065
S214001DE0220AC270230E220C41700271437110BD8C
S214001DF0B081E00F2DE9F84398464369012B06466B
S214001E000D46174600F0BC80FFF7DCFE012829D1FE
S214001E10BB897C68BF68ED1AADB23F2D2CD85B4BF2
S214001E201A689442994607D1594B1B689F4203D1C2
S214001E30B8F1000F00F08F8001F066FC804601F0DC
S214001E4063FC48B1534BB3FBF0F39C4204D3524BB4
S214001E50B3FBF0F0844216D90E2002F099FF022060
S214001E60BDE8F88300221146012000F0AFFDFFF721
S214001E70A9FE0128FBD1CBE7AA09BB0102FB03445C
S214001E8005F03F05CBE7B8F1010F4FF010037AD00D
S214001E90424A1360B8F1000FE1D0C9F8004008FBD1
S214001EA004F43F4ADFF810910023E004610B05F0CC
S214001EB06FFBC9F82C00D9F830103948C1F313016C
S214001EC04FEAC8420023A1FB000105F061FB354B39
S214001ED0334A18602E4BF8041F60A0FB08017B0BEA
S214001EE008FB0311002305F053FB2F4FC9F83C00F5
S214001EF03B7823B9D9F8503003F03F033B702B4BA7
S214001F00D3F894305A061BD5294BB4FBF3F340F2B2
S214001F104D5203FB03F14A434CF20C6101FB1323C1
S214001F2003F5C91303F555631BB92B2002F030FFE8
S214001F30012339781F4A4A43B2FBF3F31E4A13655E
S214001F4001F060FB194BD3F83831DB0654BF1B4851
S214001F501B4801F023FB3046FFF770FE01F076F9D0
S214001F600428FBD00A28F9D010B10F2002F010FF89
S214001F70114B9D6303F5805380229A6001F042FB6B
S214001F800020BDE8F8830F4A136086E7C8090020E2
S214001F90C009002000371789007DDAAC38410846B2
S214001FA000F04902C4090020F40800200040084060
S214001FB000366E018096980000300840C0CF6A0058
S214001FC0E067350038410844654B2DE9F14F9046EF
S214001FD01F6861A3D3E9002302400B401343044665
S214001FE00D4600F08980002300F40022134318BF3A
S214001FF05C4B00F4801218BFD3F81C310023134347
S21400200018BF584B00F0805218BFD3F81C3100237D
S214002010134309D0544B1B6803F07F43B3F1007F92
S21400202002BF524B02221A6004F00102002313433F
S21400203048D0002200230120002104F0D3F9DFF865
S21400204050A1EFF3108B72B601F000F9484B9A6876
S2140020509209C2F30903920548BF43EA0A030646FB
S2140020600FFA83F901F0F2F80238C0B2012865D8F9
S214002070023EF6B2012E8CBF00260126584603F01B
S2140020807BFD19F5007F5BD1002EDAD100221146C8
S214002090A7F81290012000F099FC364B4FF400127E
S2140020A01A60354B1A683AB134496FF0FF00086081
S2140020B001F1007102400A6000221A603B7B43F087
S2140020C008033B73002205F00403134314D0A24612
S2140020D025F0040BEFF3108072B6FD69BB6905F0BE
S2140020E001052B43BB6103F047FD00246DBB0025B3
S2140020F044EA0A0445EA0B05D7E9152314401D40B7
S21400210054EA05030ED01E4B2246196838462B4665
S21400211004F008040025884754EA05031EBF194B3F
S21400212000221A6018F0010F11D0174A1368002019
S214002130106063B101B0BDE8F04F184700269DE778
S214002140124A002E08BF9146A0E70425D0E701B04A
S214002150BDE8F08FAFF30080010018100400000007
S2140021605018002000500840FC1E00210040084681
S2140021700070084018600844E00800201870084402
S2140021801400002068180020E408002000FEFFFF6E
S21400219000FCFFFF084BD3F8882012060AD408225A
S2140021A09A60064B1B6813F4007F14BF044A054A66
S2140021B002231360704700BF00400840FC1E002149
S2140021C00040084600400844F8B5084D084E094F40
S2140021D004242C60D6F888305B0300D4F8BD3C603D
S2140021E0022001F073FB2C60F4E700BF884008462D
S2140021F000400840884008440A4A53685B0708D1F4
S214002200094B5B682BB1094B1B6AC3F30C03013BFC
S2140022109361074B80221A60064A136823F0400336
S21400222013607047000008404C1F00210010084053
S21400223088400846EC1E0021EFF3108072B6104B63
S2140022404FF08052C3F880204FF48072C3F880208D
S2140022500222C3F880201022C3F880202022C3F870
S21400226080204FF00052C3F880208022C3F88020E0
S2140022704022C3F880200122C3F8842003F07CBCEF
S21400228000E100E0984B2DE9F74F1F6EDA6E17401D
S2140022909F6603F58053D3F8E060D3F8EC20164031
S2140022A0C3F8E86003F5A043D3F80012D3F80C2275
S2140022B001EA020BC3F808B2A3F5005359691A6A7B
S2140022C001EA02084FEA18421204DA61874BD3F893
S2140022D00022920006D4D3F80031C3F34073002BDB
S2140022E000F0E180EFF3108072B6814BDA68D96DAA
S2140022F012F0060F9A6E01EA020914BF4FF0010AA7
S2140023004FF0000A29F4006219F0040F5A6604D050
S214002310784A13780133DBB2137003F02DFC002FDC
S21400232000F0DB803D0440F1C180734B7349D3F865
S2140023308830802003F4E0520A600860102041F8DC
S214002340880C002A00F0B480DC0400F1B480580544
S21400235000F1B4804FF40004B9074FF000050BD528
S214002360654B6649D3F8883003F460420A60002A59
S21400237040F0A78044F4801417F4005F0CBF0027D9
S21400238002275F4B3340002B54D016F4206F07D043
S214002390002004F037FB062026F4802602F0F8FC26
S2140023A016F0090F09D0544B20229A60A3F540532B
S2140023B001229A62082002F0EBFC16F0106F19D08A
S2140023C04D4B20229A604F4A0123C2F8B830019242
S2140023D0EFF31083009372B6002003F093FA009B8D
S2140023E0184603F0C9FB019A0423C2F8B830092046
S2140023F002F0CEFC16F4202F07D0002004F002FBDB
S214002400072026F4802602F0C3FCF10312D53E4BCB
S2140024104FF480321A603B4BC3F8E420D3F8802098
S214002420C2F30C023C2A05D8D3F8E030DA0301D513
S21400243002F094FC730709D5344B1A684FF4005326
S214002440002A4DD0324A44F480241360700548BFF9
S21400245044F0040416F480266BD02E492E4A0B88CE
S21400246012882E481A4404339BB2033A0B8002F0BB
S2140024703C022B4902444B62937803F00703042B7B
S21400248003D11D4841680903FCD42649013B0A6074
S214002490062B4BD8DFE813F0EE00F100EE00F40058
S2140024A0F700FA00FA009A46994638E7002453E700
S2140024B04FF4002450E74FF000744DE74FF400143B
S2140024C04AE71A0402D544F0806455E798044CBFE6
S2140024D044F4800444F080744EE70024002550E75E
S2140024E0114A1360B2E700BF0000084000E100E0B8
S2140024F00050084053090020004008408840084427
S214002500090A0B0900100840EC100844B404024302
S214002510241008443A09002038090020F808002052
S214002520601008404409002024100846032002F0EA
S2140025302FFCBBF1000F1DD01BF4805F18BF44F4C6
S21400254000441BF4807F18BF44F480341BF4005F03
S21400255018BF44F010041BF4007F18BF44F020049A
S2140025601BF4806F18BF44F040041BF4006F18BFC4
S21400257044F08004B8F1000F2FD018F0007F18BF89
S21400258047F0080718F0806F18BF47F0100718F0DC
S214002590006F18BF47F0200718F4802F18BF45F0CB
S2140025A0040518F4803F18BF44F4006418F4801F34
S2140025B018BF44F4804418F4001F18BF44F0020407
S2140025C018F4002F09D000F041FE831EDBB2012B69
S2140025D001D9072801D144F40034B9F1000F00F006
S2140025E0818019F4006F15D0A549A64ACB78002B38
S2140025F04FD0013B4FF40060DBB25066CB704BB956
S214002600A14B197840F6014300294ED002F1C06272
S2140026106C32136019F0007F04D02B2001F048F9CB
S21400262044F0804419F4E00F06D119F4805F4DD0D1
S214002630BAF1000F00F0D78019F4001F04D029204B
S21400264001F036F944F0005419F4800F2FD08F4B68
S21400265001221A608B4B4FF480525A66272001F0F5
S21400266027F98B4B80221A60102243F8882C44F0FE
S21400267080542BE044F400545BE744F4806458E74D
S21400268044F4007455E744F4807452E744F00804B8
S2140026904FE78049012008607F484FF4006141F60B
S2140026A01F7E5166C0F800E051661367B2E719F462
S2140026B0801F76D0754B01221A60724B4FF4805201
S2140026C05A66282001F0F4F844F0006419F4806F8C
S2140026D008D06B4A9378002B00F0CA80013B9370B9
S2140026E000231F436D4BDFF8FC91D3E900016C4BD0
S2140026F01A68204001233A40294089F80030FFF745
S21400270063FC002389F80030DEB1664C2368B3B161
S214002710D80712D4EFF3108572B6634E634831883B
S214002720022B01F03C07074440F022812368002B6F
S21400273040F0DA80284603F01FFA0023236000F0FA
S21400274063FDB8F1000F29D018F0007F14D0584B65
S214002750D3F83821D20600F12281D3F80011D3F83D
S2140027600021520821F47F1102F4FE120A43C3F836
S21400277000214FF00072DA6118F0006F0ED04C4B5B
S214002780D3F8383113F0100F0CBF4A4A4A4A4FF4B8
S21400279000131360494B4FF000621A6003B0BDE8A7
S2140027A0F08F19F4805F91D0384BDFF8D8A04FF047
S2140027B0010BC3F800B04FF48053CAF864302220EF
S2140027C001F076F84FF48023CAF80430DAF85C306B
S2140027D013F4A00F7FF47AAF2A2001F069F8384B83
S2140027E0C3F828B043E7264A137963B1013BDBB24E
S2140027F0137123B10022002314431D4366E7314BB7
S214002800314A1A60F6E7214B01221A601D4B4FF43D
S214002810805159661F490A604FF400625A662B4A77
S214002820DA66EFF3108B72B6294B1B780BB100F00B
S21400283015FD234B1B6D009300F008FD032803D005
S214002840009BC3F30C032BB1224B1A78224B4FF09C
S214002850010A1A70584603F08FF9BAF1000FC9D171
S2140028601E4B83F800A000F091FC4FF48052C2E7A4
S2140028701B4A01231360034A4FF48061516630E718
S2140028803C090020005008405009002040510844F0
S21400289088400844305108446C5008441019002001
S2140028A00C1900204409002038090020F8080020F0
S2140028B000400840004108441841084420400844AD
S2140028C0001008406C5008460000010D0000010191
S2140028D0510900205209002049090020480900201B
S2140028E0205108441919002023F00103226822F021
S2140028F001029A4240D1002222601A886FEA4242C0
S2140029006FEA52429F421A8029D12B48078807EB6C
S21400291001092A49A1F1040A043FBFB21A1DA9EB16
S214002920070E8A4228BF5246042F1FFA8EFE2FD863
S2140029309A781B8822490780C3F30C03CB6302F006
S2140029400702204B0EF07F01042A3180D9605F62B7
S21400295005D11D4B1B6803B1984700F0E5FE184BE8
S214002960D3F8E030D9037FF5E5AE02F0F7F9E1E6FB
S214002970012B08BF3B46B9E701F03F029A1A121A2C
S2140029800D48008848BF403204389042B5DCD1E696
S214002990B2F900C0BCF1000FCADA1346BCE7D3F8A0
S2140029A01811D3F81821520821F47F1102F4FE12F0
S2140029B00A43C3F81821DCE63A090020FC08002088
S2140029C000100840601008404C0900202DE9F04730
S2140029D081460F461646EFF3108872B63D4D002925
S2140029E06AD180232B603C4BD3F83021D2070AD51E
S2140029F03A4901220A604FF40061596638490A6074
S214002A004FF480525A66344C364BE36600232367F5
S214002A10FFF7DAFB344ADFF8E8A0136843F0400318
S214002A201360324BFF221A604FF48073CAF80830E6
S214002A3004232B60B9F1000F10D000F00FFC222009
S214002A4000F036FF4FF4802363602023CAF8083076
S214002A50234B01221A604FF4805363663FB330461F
S214002A6003F0D0FF224B01221A6006B3214BDA6E28
S214002A709A6603F580431A6ADA6103F50053D3F8C1
S214002A800C22C3F80822A3F54053DA6F9A67A3F521
S214002A900053D3F8EC20C3F8E82003F5C043DA6B04
S214002AA09A63A3F50053144A5A6600F09FFB40460B
S214002AB0BDE8F04703F060B8FFF786FB0F4B012236
S214002AC01A6004232B6000F0C1FB002889D000F0B8
S214002AD02BFEF8E788400844005008403051084470
S214002AE04051084400000101EC1E0021004008444B
S214002AF00C400844000008405000F0020C40084615
S214002B000040084008B500214FF4857003F0B8FF78
S214002B10064B00221A61012211461046FFF756FFA7
S214002B20FFF750F80128FBD108BD00BF980A002027
S214002B30012838B514BF0125022528460CBF0424F9
S214002B402C4602F033F970B1012002F02FF950B193
S214002B50FFF738F8420706D40D4B188840F080700F
S214002B6040EA05401860204602F020F978B10120BE
S214002B7002F01CF958B1FFF725F8830707D4044A7A
S214002B8013681B0C1B0443F480732343136038BD87
S214002B90FC1E00212DE9F04F3C4C3D4F85B02646EB
S214002BA0637A3C4D0133DBB2272B88BF25232046B2
S214002BB0637203F0F5F8B17B374896F80C80023163
S214002BC003F0CCF86B68354A5B7A08F0010840469B
S214002BD012F803A0FFF7ACFF314BD5F80080D3F80E
S214002BE088301A0608F10C0922D45146484602F0ED
S214002BF001F9E8B9484603F07DFBC8B9B8F84A3091
S214002C0042F21072934298BFD01A01F033FF80460A
S214002C108946EFF3108B72B6224AD2F83031DB07C2
S214002C2003D4D36813F0060A05D0584602F0A4FF72
S214002C30FFF768FFB4E71C4B039283F800A0FFF78A
S214002C40DBFA039A194BD366194BC2F870A0082218
S214002C501A60144A01234FF400613B60516640F647
S214002C60014111670320009342464B4602F0CEF91D
S214002C7018B90F4B80221A60D7E7584602F07CFF3F
S214002C800C4B2B6105B0BDE8F08F00BF5409002047
S214002C9030510844980A002061090020AE900000D8
S214002CA00040084000500840500900200000010184
S214002CB088400844B92C000002282DE9F3410D464F
S214002CC01ED002D8012805D0FEE7032851D0FF28E1
S214002CD04FD0F9E74F4C237B980707D5FFF712FF35
S214002CE0FFF758FF237B6FF341032373237B99077A
S214002CF001D4DA071ED402B0BDE8F041FFF74ABFA0
S214002D008B79CC68DB0734D5227802F00F07032FC7
S214002D1013D0052F2DD140498B7B03F00103B3EB75
S214002D20D21F04F1080005D10622083104F0B8FDD0
S214002D30804608B302B0BDE8F08137498B7B03F0CC
S214002D400103B3EBD21F04F10800F3D106220831C9
S214002D5004F0A6FD0028EDD12E4C94F8361004F1B0
S214002D603500023102F0FAFF237B43F0020323739F
S214002D70E0E7FFF7C7FEBEE7FFF7C4FE2E68274D65
S214002D8041465C22284604F011F8AB7E2F8343F0C0
S214002D902003AB76627E237E43EA0223AB84627F07
S214002DA0237F43EA0223EB8494F82330C3F304031F
S214002DB085F84F3094F82330C3F3421385F850302B
S214002DC004F11E001B232B8501F07CF9D4F80E308D
S214002DD0E27CEB60A37C2E6043EA0223227D607DCA
S214002DE043EA02432B61012795F84F30AB722F75EB
S214002DF0E18A394401F052F900F024FEEA8CAB8CEB
S214002E00074900924FF40060064A03F087FE064B1F
S214002E101F708FE754090020980A0020E40900205C
S214002E20298F00001C8F0000400A00202DE9F04F7B
S214002E30A54E8BB011464FF486709946904603F027
S214002E401FFE336934463BB941464FF4837003F0A6
S214002E5017FE0BB0BDE8F08FB9F1000F08BFB8F150
S214002E60080F40F0F68000214FF4817003F008FE52
S214002E7006AA02A9022002F03BFA0646002800F045
S214002E80C6809DF8083013F0F70F06D0EFF31080D9
S214002E9072B68E4B1E6002F06FFE022E08D800221D
S214002EA03046114602F024FA0646002800F0AF80AD
S214002EB0B6F8009019F4004F40F0A980B67806F0F6
S214002EC00703052B40F2A380D81F434243410093DB
S214002ED000F0BAFC5FFA80F8B8F1000F00F0B58099
S214002EE07B4B1B6B03F00703063301259D40A9F1BE
S214002EF00609784B691E1FFA89F901EA09015B6821
S214002F006D1A43F000594545494480F09B802A4697
S214002F1006A804F0D4FC06ABA8EB050249465819EF
S214002F2004F0CDFC6C4B6D4A1B680193D2F830312F
S214002F309DF91850DDF81A80190400F1C380D06D91
S214002F40C0F30113000C03FB000342F210718B4226
S214002F505DD8D06900F01F0001301844002100F051
S214002F604DFC0746EFF3108072B65D4B9A699246A9
S214002F705C4A92F800905C4A12684FF0000B5FFAC9
S214002F8089F93AB19B6909F101099A464FF0000B9D
S214002F905FFA89F902F0F0FD00239B45504908BF0F
S214002FA0C24538BF09F1FF39096B38BF5FFA89F9A6
S214002FB04246013109F00309E9FB012399464B4BD0
S214002FC01B689046A3FB080110F1004003FB0911A3
S214002FD041F100010A464649019BD1F800E05B6BCF
S214002FE0AEFB080180183D4AD2F83021120406D5FF
S214002FF0404A16F0080F4BF6EB6318BF1346C01B8B
S21400300003F5FA734FF47A77B3FBF7F3C71A6368DE
S21400301006975B7A009A8DF81C309DF81E308DF866
S2140030201D5062F300038DF81E30BDF80A30ADF86F
S2140030302030049B099306A923690220984702F0D2
S21400304033FB06E7424606A86AE76FF07F05474669
S214003050DDE7B9F1000F08BFB8F5002F09D1002150
S21400306040F2011003F00CFD33690021012098475F
S214003070EFE608F4C0520023134309D04FF48071E2
S2140030804FF4817003F0FCFC336900210320EEE767
S21400309008F440720023134308D001214FF48170D6
S2140030A003F0EEFC23690021FF20E0E708F0207221
S2140030B00023134319BF012140F2011041464FF48B
S2140030C08370EDE72F2049E7980A00206818002053
S2140030D000100840301008405018002000600840DB
S2140030E00050084053090020880B0A43B40900200A
S2140030F0B8090020FBD90200024B5A6999680A40B9
S2140031001A61704700400440194B2DE9F0411F68D2
S214003110184B194D02221A60AB6913B3EFF31080F7
S21400312072B6DFF864800024D8F80060C8F8004063
S21400313002F022FD0F23C8F800406C622C612C6060
S2140031406B600E4B196851B11C60EFF3108072B6BD
S2140031500B4A936923EA0103936102F00DFD06B161
S214003160B04717B9074B02221A60BDE8F08100BFCE
S2140031700419C843C8400E4600800840D009002005
S21400318000300E40C8400E44BC090020EFF310800B
S21400319072B6124B1978B9B9114BD3E90023002344
S2140031A002F4105213430FD10E4B10221A600C4B30
S2140031B0D3E90023002302F4807213430AD00A4B9B
S2140031C020221A6002F0D8BC074B10221A60002991
S2140031D0F5D1ECE72022034BF3E700BF48090020B7
S2140031E0101900209440084494400846044B0022DE
S2140031F01A70044B197811B11A70FFF7C7BF7047E1
S214003200490900204809002038B50C4B1B789BB1B3
S2140032100B4B1C6DC4F30C0474B9FFF7E7FF094BA6
S214003220094DD3E900012246012300F48050002115
S2140032302B70FEF7C9FE2C7038BD00BF4909002070
S214003240001008401019002019190020024B586879
S214003250C0F30360704700BF0040084008B5EFF3B6
S214003260108172B6FFF7F2FF032806D1074A1368EB
S21400327023F0F00343F0E0031360054B01225A628B
S2140032800846BDE8084002F077BC00BF541F002186
S21400329000000840264B828A9B88D21A8368C3F1B6
S2140032A07F4303F57F0303F576433C334FF47A718F
S2140032B001FB02321F4B2049D3F8303113F4004F84
S2140032C0F0B51E4B21D01C68A2F53E42EB3AD7174C
S2140032D0A2FB042304FB073312F1807643F10007B8
S2140032E0700E40EAC710803808621548A4FB0045F7
S2140032F0121B63EB050312F1807243F10003520EBA
S21400330042EAC312803A0A60F0BD0068121A1868D2
S214003310D517A2FB002312F1807200FB053343F1A0
S2140033200003520E42EAC312803A0A62F0BD00BFA2
S214003330D409002000600840841F0021DC0900201A
S214003340101B0200094B1B6830B5C517A3FB000114
S21400335010F1807003FB051141F10001400E40EAB8
S214003360C110803820EAE07030BD00BFDC090020C4
S214003370C28908B54FF47A7353435AB1026802F50E
S2140033801C52103213440279002A46F2A81008BFD5
S214003390002003441846FFF7D5FF014BD86208BD4E
S2140033A0841F0021826808B5038B4FF47A7101FBF5
S2140033B003230279A3F50353002AA3F1100346F270
S2140033C0A81008BF0020181AFFF7BCFF014B986230
S2140033D008BD00BF841F002110B5044630B1FFF7BA
S2140033E0E1FF2046BDE81040FFF7C2BF10BD000059
S2140033F008B5074B408B9B88C31A4FF47A70584326
S214003400A0F6C410FFF79EFF024B186308BD00BF6E
S214003410D4090020841F002108B50A4B428A9B88E5
S214003420D21A8368C3F17F4303F57F0303F576431F
S2140034303C334FF47A7000FB0230FFF783FF024BF9
S214003440D86108BDD4090020841F002108B50A4BA6
S214003450C28A9B88D21A8368C3F17F4303F57F0331
S21400346003F576433C334FF47A7000FB0230FFF7E7
S21400347069FF024B586208BDD4090020841F002152
S21400348038B5044658B383894FF47A70584323B14D
S214003490236803F51C5310331844FFF753FF104DF1
S2140034A0A8612046FFF764FF238A4FF47A705843DA
S2140034B0A0F503501038FFF745FF68612046FFF778
S2140034C0C5FF2046FFF7E6FE2046FFF7A5FF20468D
S2140034D0FFF78EFF2046BDE83840FFF763BF38BDD4
S2140034E0841F002108B500F47813B3F5C02F28D048
S2140034F00FD8B3F5003F3CD0B3F5802F16D0002B85
S21400350043D101F03FFA244BD3F80031C3F3042330
S21400351013E0B3F5202F32D0B3F5601F17D0B3F504
S214003520002F32D1BDE8084001F02CBA01F02AFA8B
S214003530194BD3F80C31C3F308230133B0FBF3F077
S21400354008BD01F01FFA144BD3F81031F3E7124B05
S214003550D3F8003203F00703013B042B07D8DFE85B
S21400356003F01818060318004FF47A7008BD002000
S21400357008BD01F007FA084BD3F80831DBE701F085
S21400358001FA054BD3F81431C0E7BDE8084003F054
S21400359037B94FF4004008BD00400E4038B5124D14
S2140035A04FF400222A60114A1060114A1268D2B104
S2140035B0104B114C1B6F00F5F42000F59070B0FB1B
S2140035C0F4F4033CE4B203F00703A34202D020461F
S2140035D002F042FA094B1B782BB1094B4FF47022CC
S2140035E024041A602C6038BD944008461800002059
S2140035F08009C64300300E4040420F00CC09002030
S21400360094400844F0B5334A334D51681068127A36
S21400361085B001AB03C31A70304B314A9C6B1B6BF1
S2140036201168304A13F4801F2F4B12681B6801FB89
S214003630042404AA14BFE418E41A2C4BB4FBF3F3D6
S21400364013442B4A13F80B6C04ABF440B4FBF2F2B1
S2140036501A442B6812F80B7C23B92B2001F098FB38
S21400366001232B602A68234B43F6FF51196004EBB5
S2140036705203B3FBF2F3013B1F4A43EA063343EA25
S214003680872313601D4AB4FBF2F302FB1344642243
S21400369054431B4A944298BF03F1FF335C08651EEF
S2140036A05C1C6408072D04F1FF3403D8072C01D8EE
S2140036B01DB914B9102001F06BFB124B4FF4EE62EB
S2140036C01A60240203F1007344EA05141C6005B076
S2140036D0F0BD00BF468F00001800002000300840F4
S2140036E0C0090020C8090020C409002040BE4025AB
S2140036F0401B5F13A4400844A440084600F049025B
S214003700FFEF490230400844064B5B6BC3F3C2022E
S21400371003F0070002B15043C3F3821303B15843CA
S214003720704700BF00300840064A1146536803F051
S2140037307063B3F1C06F02D1D36BDB06F6D54023BE
S2140037408B607047004008402A4A936903F03001B6
S214003750202910B53AD1C3F302441CB1C3F3C422E6
S214003760B2FBF4F413F4C01F18BF64006408032C03
S21400377028BF0424112003F043F81E4A116D8BB2B3
S2140037802BB1C1F30741C0084843B0FBF3F391697E
S214003790D2F830211204184A126C02F4C05248BF04
S2140037A05B08B2F5805F03BF124A126B520D01F040
S2140037B0300208BF02F03002202A13D0302A17D079
S2140037C0102A00D15B0803FB04F010BD936903F4D4
S2140037D0E073402B02D0B3F5807F01D10224C9E705
S2140037E00124C7E7C1F3C4210131B3FBF1F3EAE7D3
S2140037F09B08E8E7006008400000084038B504462B
S2140038000D46FFF7A1FF0C4BD3F830311B0405D54E
S2140038100A4B98420A4808BFAD00A400094B2C4446
S2140038201421B0FBF1F103FB04140A23B0FBF3F000
S214003830B4FBF0F038BD00BF0060084048E8010067
S21400384020A10700A08601000D4BDB6C13F0200FB3
S2140038500CBF00200420D90648BF02301A0744BF18
S2140038600230C0B2590744BF0230C0B29A0744BF04
S2140038700130C0B2DB0744BF0130C0B2704700BFA2
S21400388000000840084B094908221A6001221A6005
S2140038900A6040221A6020221A6010221A6004224F
S2140038A01A6080221A607047C8400E46CC400E460A
S2140038B0044BD3F89430002BBCBF034BC3F88000F6
S2140038C0704700BF00400840000008402DE9F04F58
S2140038D087B0044601F076FB80462046894601F014
S2140038E0C9F8224B0D461A6BD968C90704463AD563
S2140038F0520810460021CDE900010593DDE90023BA
S214003900AB4208BFA242CDE9024501D2CDE902236F
S21400391001F058FBB0EB0806059B61EB090749452B
S21400392008BF40451A6B0ED201324FF0000343F138
S21400393000034FEA830B4FEA820A4BEA927B16EBB0
S2140039400A0647EB0B07DDE902239F4208BF9642B3
S214003950DED3AF4208BFA64205D2A41B65EB07051F
S21400396080468946CAE707B0BDE8F08F0050084099
S21400397008B5194A19491A4C03464FF4006003F07B
S214003980CDF8184A937E43F040039376164B0022F8
S2140039901A70164B1B78012593B102F01DFC4FF0F0
S2140039A0005340F20222A5601A804FF20F025A809E
S2140039B0236823F4E06343F48063236002F0B2FBE1
S2140039C04FF00052A5601360236823F4E06343F4CD
S2140039D08063236002F0A6FBB08F00009B9000007F
S2140039E000500E40E4090020400A0020E0090020B4
S2140039F010B5134CA37E5B0621D4FFF783F821682D
S214003A00A38C40F2E24202FB0312226094F84F10AD
S214003A10A27A25200A4492FBF0F100FB1122A27242
S214003A2022890132228162680A2101FB0323636036
S214003A30238B5A1E228313B90820FFF799FF10BD67
S214003A40E40900202DE9F04FDFF8B4A1DFF8B4B1A7
S214003A5087B05D4C40F60100218903F011F8A37E83
S214003A6013F04002254640F0AC8043F0010303F01B
S214003A70FD0362F38203554AA376136821891BB1BE
S214003A8092888A4200D19847A37A51481D4495F8F7
S214003A902A30637502F084F994E860004D4C4E4A73
S214003AA063685B7A0120D15C0291FFF741F8D4F895
S214003AB00080FEF787F8012808F10C0907460594F0
S214003AC0029979D1484601F095F9044600283BD181
S214003AD0B8F844307608A81BC01A00F0CBFF804622
S214003AE005F164003044894600F0C4FFCDE90201C8
S214003AF0EFF3108672B6394DD5F83031D90704D5B4
S214003B00304602F039F803241EE0354BEB66354BA1
S214003B102C671F70344B1C70DAF8003023F040031B
S214003B20CAF800304FF40063CBF800706B662F4B7A
S214003B30EB66424600944B46032001F067FA50B904
S214003B40304602F019F83C4601F0AEFD002C35D0A8
S214003B50FFF74EFF7DE7D5F83031DA0703D4244B64
S214003B605B685B04CCD5234B1C4D01271F70FFF709
S214003B703DFB214B1F604FF480536B66EB6E23F0CA
S214003B80F85323F4F81343F0506343F48033EB66A2
S214003B90002300930420DDE9022301F037FA38B948
S214003BA04FF40063CBF800706B660D4BEB66A7E72F
S214003BB0304601F0E1FFC7E70224C5E7059A0F4B40
S214003BC0136107B0BDE8F08FE4090020780A0020F2
S214003BD0F0090020980A0020AE900000005008402F
S214003BE0000001015009002052090020010C0100CC
S214003BF00040084051090020405108445D3C000048
S214003C00EC1E002130510844044B5A6D22B9586509
S214003C10A3F858100120704700207047E4090020E0
S214003C20D0B50C4CE38C0A20584303F019FA06462C
S214003C30A08C0F4603F014FA0022074B03F076FA26
S214003C4002460B463046394603F09AFB03F080FCEA
S214003C502083D0BDE40900200000F43F2DE9F047A2
S214003C60022886B00E460BD003D8012800F0FA8151
S214003C70FEE7032800F0FE81FF2800F0FB81F7E74F
S214003C80B64DCC68AB7ED90708D56FF30003AB768C
S214003C9000236B6033682B60FFF7C2FFB77917F01D
S214003CA0010742D14FF0FF3140F6030002F0E8FE74
S214003CB0AB7EAB4C13F0200F12D0696D6FF345133B
S214003CC0AB76002900F0B681237895F8582062700C
S214003CD043F003032370A01C03F0F1FD00236B6583
S214003CE0A04802F025FFAB7E003018BF012060F32D
S214003CF04103DAB2AB762378C2F3001161F3820394
S214003D00C2F3C00262F3C30360F304132370218876
S214003D1040F6020002F0B4FE617891480231C9B262
S214003D2002F01CF806B0BDE8F087218840F60300D4
S214003D3002F0A6FE2378AA7EC3F3001363F3820282
S214003D402378AA76C3F3C001C2F30012914208D1C9
S214003D5003F00303022B00F0488104D8012B00F087
S214003D606681002787E0A3787F4A80494FF4805019
S214003D7002F0D4FEA378022B00F0998012D8002B14
S214003D805DD0012B40D07A4A16782EB1162B00F063
S214003D90CA80182B00F01081764807220270437004
S214003DA002212EE00C2B22D0142B00F08F80082B43
S214003DB0E9D12646704956F8032F73684FF48050B1
S214003DC08DE80C006D4A02F0A9FE6D4B3268998AA8
S214003DD0C8B20240674801F47F4106460A430921FB
S214003DE006F8011B0023C0F80120736009E0614853
S214003DF000220370012343708370C2700371427106
S214003E000621FFF701FF36E023895E4A5E494FF43C
S214003E10805002F083FE627A237A5C4943EA0223EA
S214003E208B800B465A4A43F8062B224652F8030F5D
S214003E30C1F806009188998092799A711BE0A3894F
S214003E40544A51494FF4805002F068FE627B237B4F
S214003E504E4843EA0223838003464F4A43F8062B24
S214003E60224652F8031FC0F806105168596011899F
S214003E701981927A9A72AB7E2178C3F3C002C1F39D
S214003E808001914207D082F0010262F3C303DBB2E5
S214003E9043F02003AB76002F3FF40AAFAB7EC3F3AC
S214003EA0001282F0010262F30413AB7600E7E378B7
S214003EB03A4A3B494FF4805002F030FE2A89334B91
S214003EC005329A80374A1A60E278B6E7B4F80920D5
S214003ED0B4F803300292B4F807200192B4F8052033
S214003EE000923149314A4FF4805002F017FEB4F880
S214003EF00530B4F803201F48DB08934228BF13465A
S214003F002B85152300216FF004066FF0270203703F
S214003F100723817081714670C27003714671C27149
S214003F20037209216DE72279E378214900924FF464
S214003F308050204A02F0F2FD2279E3780D481340C3
S214003F4003F00303022B18BF01231722032102707C
S214003F5043708370FFF758FE37468CE7E40900206D
S214003F60B00A00205C0A0020A78F0000BF8F000068
S214003F70740A00208C0A0020F28F0000928F000046
S214003F80980A0020638F0000D08F0000780A002077
S214003F90DD5C0000718F0000815C0000858F0000F2
S214003FA0E08F00006D5C00000B9000009D8F00000D
S214003FB04D9000004F8F0000B4F80520E378019282
S214003FC0227900922E492F4A4FF4805002F0A6FD27
S214003FD06279A1792C4B42EA01229A802B4A1A6018
S214003FE0D4F80320C3F80620B6E7B94694F8018053
S214003FF0B8F1000F3FF43FAF2548868A02F098FDDF
S214004000301A04F1020A80B2B9F1000F04D0022877
S21400401086BF023880B200201FFA88F383423FF63C
S214004020A0AE524649461A4802F0C6FD23E74FF0B6
S2140040300009DBE795F828301648A21C0DF1170199
S21400404002F024FEC0B258B19DF81730002B0CBF0A
S214004050012202222378607062F3010323703FE698
S2140040600122F7E70C4B9B7E9A073FF55BAE5B079A
S2140040703FF558AEFFF7BCFCFFF7E4FC52E600BF86
S2140040806D900000568F0000780A00203D5C00000E
S214004090440A00205C0A0020E4090020084A10B503
S2140040A0146840F2E243584303FB0141536800F5AD
S2140040B0807001EB500118441160506010BD00BFC5
S2140040C0E409002030B500228BB01346D91003F067
S2140040D00704415C2141CC0741BF0AA98918013277
S2140040E001F8283C0133252BF0D10D4C0023D910C4
S2140040F003F00705415C2941C9075FBF0AAD93FB82
S214004100F2F102FB113149194EBF237011F8281C39
S21400411021700133252B04F10104E8D10BB030BD2A
S2140041200E0A00202DE9F0474A4B4B4CDFF8509121
S2140041304A4D0E464A491B1B17460B44D9F8002029
S21400414023F4FF63801A23F0070398422860C846CA
S21400415009D2444B1A78314637440020B94271D10F
S21400416088B9BDE8F0873A44141801F0EBFEA0F5D4
S21400417080508442EDD2D9F800003C18B4F5806F28
S21400418003D98222374B1A70EBE7DFF8F0A03146EE
S214004190354E3A46504403F092FBC9F80040D6F834
S2140041A00090B9F1000F1CD1B4F5867FD9D32F4A01
S2140041B00AF1FC030AF5867A53F8041B42F8041B3E
S2140041C05345F9D1294801F04FFF08B98422D9E7B1
S2140041D01022FF21264802F0E9FD2B68254AFC3311
S2140041E013602868244B04F003070444E41B1C40B7
S2140041F0B9F1000F09D11840C0F50061214401F063
S214004200A3FF346040B18522BCE7A14504D2A4EBED
S214004210090109F50060F2E7D8F800201749286878
S214004220D21B01F0A3FFD8F800202B681449D21B3C
S2140042300446134411482B6001F0FAFF002CE2D12B
S214004240BDE8F08711F8014BFF2C1CBF012083222C
S21400425084E700BFA8000020100000200C100020FB
S2140042600BA00000091000203C160020241200209D
S214004270341300203412002000F8FFFF381200200C
S2140042803816002070B50E46B0B901F00DFF044692
S21400429001F00AFF60B1094D04F1FC0304F59A74BD
S2140042A0186859682A4603C20833A3421546F7D150
S2140042B0034B33600423B380002070BDB00B002096
S2140042C0D00B002010B50C4630B9044801F094FF1E
S2140042D0034B23600423A380002010BDEC0B0020BA
S2140042E0F00B00202DE9F04F01288DB040F04881FA
S2140042F08A88002A00F04681A44D95F800B0BBF1EC
S214004300000F00F04181A24B1C7898465CB9A1488A
S214004310067882463EB9A04E30681718B7F5806F0B
S21400432005D982241C7020460DB0BDE8F08FDFF85A
S21400433084920968484403F0C2FABBF1020F376062
S21400434049D0032FEFD905A801F056FF9DF8143089
S214004350D9F80020012B914B31D19A4261D1079BAD
S214004360DB032ED502232B7001F036FF8C4B1A6828
S214004370A2F17E63A3F58433B3F5605F04D2136BBA
S21400438003A99B68002098470398864B864A1860C6
S21400439020F4FF6323F007034FF40061136001F07D
S2140043A0D3FE38B901F080FE90B14FF4006101F001
S2140043B0CBFE68B1852388F800301C46B3E79A42E6
S2140043C02FD1842388F8003098F80030002BF2D1E3
S2140043D02B78022BA7D1754B754F1A7812F0F70F72
S2140043E0994640F0A0806F4B35681B6805F0030BBC
S2140043F01D443B681D446C4B0193A5EB0B0525F44F
S214004400FF65186825F0070585420DD9291A00F5BD
S214004410006001F099FE019B28B1852488F80040D1
S21400442081E78623CEE71D605D4B1A68A2F17E63A6
S214004430A3F58433B3F5605F72D2126B33681569E7
S21400444039685C4AA3EB0B030020A8470546326890
S2140044503B6851495748A2EB0B0213443B6001F0FE
S214004460E7FE002DD9D199F80030002B7FF45BAF22
S2140044703B687F2B7FF757AF03A905A801F0E8F943
S21400448010B9059B89F8003099F8003013F0F70F43
S2140044903FF449AF424D3B682968A1F17E62A2F520
S2140044A08432B2F5605FB8D20A6B0021D2F80C9065
S2140044B0404A0846C8470028AFD13B6833603A4BAD
S2140044C03D4F18603D4B7B602A68A2F17E63A3F5E2
S2140044D08433B3F5605FA0D2936A39484FF4007115
S2140044E09847002899D129683368A1F17E62A2F521
S2140044F08432B2F5605F40D2CD6A2E4A30483946E3
S214004500A8470546326824492A4801F091FE40F241
S21400451003239D4223D040F201239D422BD102E784
S2140045204FF4817593E73A6833681A443A601C4A38
S2140045301168A1F17E62A2F58432B2F5605F12D2F4
S214004540CD6A1C4A1C491E48A847054632681249CF
S214004550184801F06DFE40F203239D4206D1012368
S2140045608AF80030DFE640F20225EFE740F201234A
S2140045709D423FF478AF802450E740F20225C1E721
S2140045800024D0E60D24CEE68124CCE60A100020D6
S214004590091000200810002004100020EB17A603C6
S2140045A02808E10F401600203C160020E80B0020EB
S2140045B010100020040C00201410002025410000DC
S2140045C02410002001282DE9F34740F038818B881D
S2140045D0012B40F036810B681B7813BB9B4A9C4C22
S2140045E013609C4A13609C4A13609C4A13609C4A62
S2140045F013609C4A13709C4A13609C4A136022788E
S214004600022A01D101F0D8FD01232370984B002423
S2140046101C70984B1C70984B1C70204602B0BDE86E
S214004620F087032B40F0F180934B894E1C78002CCA
S21400463057D13378002B00F0E2808A4B1B78082B8A
S2140046407BD1824A13689046F3B98C4D2B68A3F150
S2140046507E63A3F58433B3F5605F6CD201F01CF97A
S214004660002868D12A680190A2F17E63A3F58433FE
S214004670B3F5605F04D2136B01219B6901A89847CC
S2140046807C4B01221A702CE013F003071ABFC7F107
S2140046900407FFB2274603EB070ABAF5806F00F25D
S2140046A0B28077483A461844FF2102F07FFB6E4BF3
S2140046B0684AC8F800A015681A6815445544DFF81B
S2140046C0A0A125F4FF65DAF8000025F0070585426D
S2140046D099460BD9291A00F5006001F035FD18B18E
S2140046E085240023337098E7CAF80050634AD9F847
S2140046F000101068D8F80030A0F17E62A2F584326F
S214004700B2F5605F14D2026B002015695C4AA847B8
S2140047100546D9F80030D8F800204C4958481344CC
S214004720DF1BC9F8007001F083FD002DD8D18CE79F
S2140047304FF48175EDE78024D3E7002B61D04C4B16
S2140047401B78002BF7D0494F3B6843B9434B4D4984
S2140047501868102201F00AFD0028C1D1C1E713F045
S21400476003021CBFC2F10402D2B203EB0209B9F580
S214004770806F48D84448384DDFF83481FF2118440C
S21400478002F014FB4149424B424AC7F800905B1ABC
S21400479013442A6803EA0803934201D98324A0E756
S2140047A0914401F0CFFBA0F580508145F6D22B68EE
S2140047B03A68DFF8AC901344D9F8000003EA08081A
S2140047C0804509D9A8EB000100F5006001F0BCFCAB
S2140047D0002885D1C9F800803A682B49286801F07E
S2140047E0C5FC2B683A6821498046134426482B604E
S2140047F001F01EFDB8F1000F7FF472AFA6E781242A
S2140048006FE784246DE782246BE7042B1BD1224CD0
S214004810224A234913234FF4006002F07FF9132342
S2140048200221204663702170FFF7EEF91D4A1E4BE9
S214004830128905329A801D4A1A6062789A7100249D
S214004840EBE60D24E9E60624E7E600BF04100020A8
S2140048500A100020401600200C1000203412002001
S2140048603C160020E80B0020101000203816002010
S21400487008100020E0090020091000202808E10F99
S214004880040C002024120020381200201000002003
S214004890A80000200BA000008C0A0020D690000084
S2140048A09B900000E4090020780A00206D5C000060
S2140048B000F8FFFF10B508B3114B1A6891888142C3
S2140048C01CD39988814281BF0121126899809A6021
S2140048D099889A6800242AB904B19A604FF6FF7145
S2140048E0998004E0884204D10CB198809A60104602
S2140048F010BD013189B201241268ECE70022F6E708
S214004900F80B00202DE9F04385B0044688468DE874
S2140049100C000C9EBDF83470FFF7CCFF4FF6FE7906
S21400492005460DB1444505D94FF6FF74204605B03F
S214004930BDE8F0832B7A9DF804209A421ED1009998
S214004940686802F0ADFFC8B9002EEFD02B69AA8ABE
S21400495053B14A4508D10290ADF80C0002A9984719
S21400496060B9029BBDF80C2043B1974206D13A4687
S2140049701946304602F094FF0028D7D001342D683F
S214004980A4B2CEE70B4BD3F8942002F00702022A1B
S21400499004D001D3042A0AD9074800E00748D3F810
S2140049A00031C3F304230133B0FBF3F070474FF438
S2140049B00040F4E700400E40C0EA210100F0490242
S2140049C070B525490B78032B44D0244C236823F478
S2140049D07F5222F00802130A5A2803F47F5316D98E
S2140049E04D88B5F5E16F14D8C92843F6C87632BFAE
S2140049F000250125334613431E2823604FF001038C
S214004A000BD8174A136093610822164B21E0002545
S214004A10F1E7012543F6C873EDE7134A5028136003
S214004A209361F1D94B88B3F5E16F01D87828EBD9BB
S214004A300E4A4DF601731360002D936102F1007269
S214004A4014BF4FF457434FF4504313609361084B21
S214004A5008221A6070BD00BFD4090020E81F00219C
S214004A600841084494400844084108460441084464
S214004A7094400846084B09491B68096830B54FF052
S214004A8000440025E3FB00452A460023E0FB012303
S214004A901046194630BD00BF60180020641800207C
S214004AA008B5FEF731FE0138114A1249124B0828A4
S214004AB01AD8DFE800F005190F0F121216161600A6
S214004AC00E480078116001280CBF4FF044124422B3
S214004AD01A6008BD11600022FAE711604FF0331229
S214004AE0F6E71160A222F3E71160054AF0E700BF7F
S214004AF050410844F701F70150410846D409002008
S214004B00A200F700F8B53D4B3D4A002808BF01203B
S214004B1018603C4B9B69C3F38213072B0C4613703B
S214004B2005D0012202FA03F313F04C0F61D1364B85
S214004B301B78022B5FD0012B0CBF3221B421334DE2
S214004B40002342F2107601FA03F252117243B2FBCE
S214004B50F5F2904202D30133102BF4D129482C4AA7
S214004B602A4F0904C0F8BC1040F6FF711160013BE3
S214004B7002F100721B021360D0F8BC10D0F8BC30F3
S214004B80D0F8BC20D0F8B850D0F8B8E0D0F8B8606C
S214004B901D48C6F30326C2F30742C3F30723CEF32A
S214004BA0031EB24005F00F0503FA0EF3C9B242F237
S214004BB01076A94052115B1172437343B2FBF7F2B1
S214004BC0B3FBF7F3491113444E43B6FBF7F61E4406
S214004BD0868005465CB12046FEF738FC2046FEF788
S214004BE01BFC2046FEF756FB2046FEF701FCA88875
S214004BF0F8BD0021A3E79621A1E700BF5C180020BE
S214004C002800002000600840D409002000DC0500D1
S214004C10B8600844F8B50446C820FFF7D1FE444BF8
S214004C2044481E78032E03D1FF2404702046F8BDA6
S214004C30012E414D16D1072C12D8012C08BF022494
S214004C402A683E4B134043EA04632B603C4B042225
S214004C501A60A4B2E4B204702046FFF7B1FEE5E79E
S214004C600724EDE7296821F0F95121F4FE1141F4FB
S214004C707F5141F008012960002E48D1042C48D904
S214004C80231FDCB201272F4BD3F88821D24302F42E
S214004C90FE1242F40052B2FA82F2C2F11302C2EBE2
S214004CA04212D3B2A34228BF2346DBB29AB296BBC7
S214004CB0BC001444244A83BB244EC2F858611F2605
S214004CC0B3FBF6F6F2B202F1010EC6EB461601226F
S214004CD09E1B02FA0EF2013A3606920306F1807621
S214004CE002F47F1231431143174A2960D2F8583133
S214004CF0D4B123F07F4323F0040343F07F43C2F88C
S214004D0058314FF480038FB1114A1360A2E7002791
S214004D10B9E73746B7E70024CBE74FF0E066013B3C
S214004D20C2F85861DBB2CAE70A4BE8E70A4AECE782
S214004D30D40900201C000020E81F00213F00C0E02E
S214004D405841084400400E40004008402C00000730
S214004D50084108460400000708410844094A0A4971
S214004D604FF48033C2F8E8300B60916B074BC9B242
S214004D709961926BC2F307229A6104229A6100221B
S214004D809A61704700100840EC1008466010084012
S214004D90034B044A18601860034B12681A60FEE75B
S214004DA0200000205018002024000020431E012B65
S214004DB003D9031F5842584170470120704700002E
S214004DC0B1F9122047F6FF739A4210B50BD0074B85
S214004DD004791978064B1868FCF78CFF84428CBF60
S214004DE00020012010BD012010BD00BFD409002006
S214004DF0501800202DE9F04F6D4F466A3B68D0F8FA
S214004E00209089B00025039343880193039B8DF877
S214004E101F50B342044688468DF81E5003D113B186
S214004E20019B99424ED0B9F1000F00F0BC80D9F832
S214004E300820002A00F0B780D9F80C20002A00F0DD
S214004E40B2805C4A0492136802934FF0000A18225C
S214004E504FF0010BD9F80C108A4515D2D9F8085036
S214004E6002FB0A55E989414531D8298A41452ED3A6
S214004E702946204605928DF81EB0FFF7A1FF059A39
S214004E8020B38DF81FB02E464B4A92F800A09DF82E
S214004E901F20A4F10C0BEAB121792046FCF76AFE2C
S214004EA0049B1A68002A63D091453AD139680029D4
S214004EB037D08E4235D1019B98451ED16662A4F844
S214004EC002800025284609B0BDE8F08F2E460AF17C
S214004ED0010ABFE79DF81E20002A66D0B6F9122008
S214004EE047F6FF718A4206D0344958460978FCF7DF
S214004EF001FF0146D1E7FF21CFE7002332464146B6
S214004F002046FCF777FF05460028D7D051462046B6
S214004F10FCF730FE00233A6801992046FCF76AFF4A
S214004F20D0E7116821B3D9F80000814220D151683A
S214004F302046FCF7B3FC0546E8B931682046FCF786
S214004F40ADFC0546B8B9049B6662C3F80090A4F8A9
S214004F50028001233246414620463E60FCF74AFF67
S214004F60054640B9164B31461B6858469847A9E790
S214004F70D9F80010DCE7049B1A46029B1360039BDB
S214004F803B60029B1BB119682046FCF787FC514624
S214004F902046FCF7EFFD3B68002B93D019682046AF
S214004FA0FCF77CFCB6E703258CE701258AE700BF03
S214004FB058180020541800201C000020D409002097
S214004FC02C000020F8B5EFF3108072B60C4B0D4D98
S214004FD0AE691C780C4B1B68E4B25BB9002700F086
S214004FE0CBFD2B6B04F00304013330463946E4FB5B
S214004FF00301F8BD0134AE690027E4B2EFE700BF55
S2140050005309002000500840880B0A432DE9F04F52
S2140050108BB09B469DF85030059305469246EFF3BD
S2140050201083049372B6A94AA94E030113440124BF
S2140050304FF4807909931C6009FA00F303937366B2
S214005040059B022B04D1049800F096FD012041E058
S214005050FFF7B8FF059B012BCDE9000109D11AF136
S214005060010A4BF1000B10EB0A0341EB0B049A46C6
S214005070A346306B002110F1010841F100094FEA08
S214005080890343EA98734FEA88029B4508BF924516
S21400509023D28F4BDDE900671A6BDDE90034B6EBEF
S2140050A00A0667EB0B075C4508BF53450AD2013278
S2140050B04FF0000343F100039900900041EA92711B
S2140050C036184F41B94508BFB0450BD3049800F0D9
S2140050D053FD00200BB0BDE8F08FBAEB020A6BEB75
S2140050E0030BD2E77A490C6FC96E21F0604105F1D7
S2140050F0090324F0E00421F460011A02E404090C18
S2140051001B0642F00102090443F48033E40C944287
S2140051100CBF0424002499426D4BD96E21F0E001A7
S2140051204FEAC1414FEAD14108BF44F002048A4227
S21400513008BF44F0010414F00102089202D0654A48
S214005140C2E900ABDDE90067DDE90001BAEB06065F
S2140051506BEB07078B4508BF82451A6B0AD20132F4
S2140051604FF0000343F100039900900041EA92716A
S21400517036184F414B4642463046394602F008FA4A
S214005180554BC0B25855CB4508BFC24575D278B10D
S214005190089B1BB1514B41F61F721A60A00742BF15
S2140051A04E4B4F4A1A60610742BF494B00221A67AE
S2140051B0474E06EB05134246C3F80CA1DDE9000195
S2140051C04B4602F0E5F900FB09F301FB0833A0FBB0
S2140051D0080110EB0A02194441EB0B03CDE9062344
S2140051E005F110031B011122F250FFF7EBFEDDE97B
S2140051F000ABDDE90078B0EB0A0A61EB0B0B41452A
S21400520008BFB842326B0CD201324FF0000343F1B4
S21400521000039900900041EA92711AEB000A4BEBEA
S214005220010BDDE90001326BDDE90667361A67EB34
S2140052300107DDE90089DDE90601494508BF40456B
S2140052400AD201324FF0000343F1000399009000A8
S21400525041EA927136184F411D4BBB4508BFB24517
S214005260DA6DFFF4F0AE03990A427FF4ECAE1A4A08
S214005270525D012532B11966E5E6BAEB080A6BEB1A
S214005280090B80E7059A22B9099A1560039A5A66AF
S2140052901CE7039A1A66089B43B1104B114941F666
S2140052A01F7240F201101A6008601A60A20706D545
S2140052B00A4B0C490A4A0C481A6008601A606307D1
S2140052C042BF0A4B01229A60BDE600BF0051084467
S2140052D000500840481800203C0900206C50084444
S2140052E000001F1F6C5008460000010100400840E7
S2140052F02DE9F0410E46EFF3108772B6434B444D4E
S2140053001B88DFF81CE103F03C01022829441CD16D
S21400531040480468B4B9BEF800401C44033C04F09E
S2140053203C042C4403F03F03E31A5B1BBEF800006A
S21400533048BF403383420DDB384600F01DFC00209A
S214005340BDE8F08124F00104ECE7012814BF044610
S2140053500C46E7E70EB9002A50D08C4226D12E49DB
S214005360C96B1FFA81F80AB1A2F80080002E45D05A
S2140053702949D1F88020C2F30C0293421FDA238811
S2140053809DB21B04D8D4A27802F00702A5EB08054C
S214005390052A3270C5F309051ED9FEF755FA2D1AEF
S2140053A02DB2002D18DA0420FFF7F2FC211FA942C7
S2140053B038BF2146B1F80080C8F30C08D3E78D6BE0
S2140053C0A5EB0805C5F30905FDF740FFE5B9032879
S2140053D00CBF082300233370104A7580C8F30803F7
S2140053E0D118B1605919B1F5007FC9BFC3F5007374
S2140053F00023B380F260DCBFB580F360384600F06F
S214005400BBFB2046BDE8F0810823E4E7380900200E
S214005410F808002044090020001008404416002028
S2140054203A09002010B4EFF3108072B60E4A0F4906
S2140054300F4C01239365C2F8883000230B604C6044
S21400544003244C620B490C800B495DF8044B0B801F
S2140054504FF4A021C2F8E81002F1C062EC321160ED
S214005460064A136000F088BB001008406010084031
S214005470F80800203A0900203809002044090020D6
S21400548037B50379124A03330446019300F1440307
S214005490009306CA0223143000F080FF228A01928D
S2140054A0E268237A009204F12C0094E8060000F0EB
S2140054B075FF237AA4F84500054684F8443022791F
S2140054C0216804F1470002F0FAF9284603B030BD1F
S2140054D01491000007B503790193054A0368009309
S2140054E006CA0223083000F059FF03B05DF804FB3B
S2140054F01C91000070B50D4C0D4B06460D4694E809
S2140055000300083483E803001846FFF7E3FF094B5F
S21400551094E8030002221A7283E80300DE601D820C
S2140055201846BDE87040FFF7ABBF00BFE89000002C
S214005530CC1800206C1800200A4B40F2011210B55F
S2140055401A604FF0FF329A6001225A6008441A46E9
S214005550814202D1D869C04310BD11F8014B946155
S214005560F6E700BF00C00140C0F30323013B10B5BF
S2140055700446092B1BD8DFE803F033231B1A052645
S214005580291A2C30184B0022C4F3043442B11749B0
S214005590D1F84401C00703D4D1F840010242FBD140
S2140055A003F1047304EBC3039B0001221A6010BDD1
S2140055B00F4801F025F901F003FA00220D4BE3E74E
S2140055C000220D4BE0E701220C4BDDE710220C4BCE
S2140055D0DAE74FF480320B4BD6E700220A4BD3E7CC
S2140055E00022024BD0E700BFB0400E4000400E4005
S2140055F000250800B8400E40C0400E40E0400E4077
S214005600E8400E40F0400E4050410E4010F0080FAB
S21400561014BF1E4A1E4A082310F0010F136014BF61
S2140056201A4A1B4A012310F0040F136014BF194ACC
S214005630194A4FF4007310F0020F136014BF134A98
S214005640134A0223136010F0100F144B00F0600092
S21400565014BF00221B224028DA64114B11D06028A8
S21400566003D0202810D1012208E00E4AD2685AB191
S2140056701168012908D9526942F001021A61002016
S214005680704740F20112F9E70022F7E744000846A7
S214005690440008441C6008461C600844000008409B
S2140056A0541F0021EC1F002138B50C4BD3F8EC50EA
S2140056B003F18063EC334FF480641C60084B0020D9
S2140056C0186001F09FF9074B4FF400521A606A0504
S2140056D003D503F1007398331C6038BD00100840F2
S2140056E06818002054100844F8B5062800F2A68072
S2140056F0DFE800F00B04199A9FA4120080244025CE
S21400570006230722002977D185E04FF400744FF472
S214005710807508230922F5E74FF400444FF48045CE
S2140057200E230F22EEE7002973D0454A536A13F082
S214005730300F5ED1434BDB6B536ADC0705D5536AEB
S21400574023F0300343F010035362032202230425A0
S2140057503B4C25663C4C23449B001E68002EFCD028
S214005760224494002368002BFCD0022866D100292E
S21400577064D0334B5A6A12F0010F1A463ED04FF4EB
S2140057808062C3F8A82020225A665A6A12F0300FA8
S2140057900CBF4FF440024FF40002D3F8901032EAE8
S2140057A00101FAD1520201D5D3F8A030244E0021CF
S2140057B00220D6F89C70FFF797FFD6F89030726AF2
S2140057C0224B22F0300242F010027262C7F30A0740
S2140057D0316BFA0903320F2A03EA010328BF0F22AE
S2140057E03B4343EA0273336335662368002BFCD0E1
S2140057F0F8BD0322022304250021A9E7536AD2F844
S214005800903003F44003B3F5400FF8D1D2F8A0303F
S214005810CCE7082402230A4A14660B4A1A4492006C
S2140058201368002BFCD1F8BD0125022400232A466C
S21400583068E7202410250423052263E7F8BD00BF8F
S21400584000400E4000300E408004F21000F8FF0FBB
S21400585070B5104C2268A2F17E63A3F58433B3F5CD
S214005860605FE0B005460E4610D2136B69465B6A71
S2140058704FF4C0720020984730B923681B6B32463D
S214005880DB6A29466846984760B070BD4FF40170E1
S214005890FAE700BF2808E10F70B5194D2A68A2F193
S2140058A07E63A3F58433B3F5605FE0B004D34FF4B2
S2140058B00174204660B070BD136B002BF7D05B6A96
S2140058C04FF4C07269460020984704460028F0D17D
